{
  "contractName": "NotesList",
  "abi": [
    {
      "constant": true,
      "inputs": [
        {
          "name": "",
          "type": "uint256"
        }
      ],
      "name": "notes",
      "outputs": [
        {
          "name": "id",
          "type": "uint256"
        },
        {
          "name": "content",
          "type": "string"
        },
        {
          "name": "completed",
          "type": "bool"
        }
      ],
      "payable": false,
      "stateMutability": "view",
      "type": "function",
      "signature": "0x61c3a7e6"
    },
    {
      "constant": true,
      "inputs": [],
      "name": "notesCount",
      "outputs": [
        {
          "name": "",
          "type": "uint256"
        }
      ],
      "payable": false,
      "stateMutability": "view",
      "type": "function",
      "signature": "0x85445449"
    },
    {
      "constant": true,
      "inputs": [
        {
          "name": "",
          "type": "uint256"
        }
      ],
      "name": "items",
      "outputs": [
        {
          "name": "id",
          "type": "uint256"
        },
        {
          "name": "itemName",
          "type": "string"
        },
        {
          "name": "serialNumber",
          "type": "string"
        },
        {
          "name": "description",
          "type": "string"
        }
      ],
      "payable": false,
      "stateMutability": "view",
      "type": "function",
      "signature": "0xbfb231d2"
    },
    {
      "constant": true,
      "inputs": [],
      "name": "itemsCount",
      "outputs": [
        {
          "name": "",
          "type": "uint256"
        }
      ],
      "payable": false,
      "stateMutability": "view",
      "type": "function",
      "signature": "0xe2c03ace"
    },
    {
      "inputs": [],
      "payable": false,
      "stateMutability": "nonpayable",
      "type": "constructor",
      "signature": "constructor"
    },
    {
      "anonymous": false,
      "inputs": [
        {
          "indexed": false,
          "name": "id",
          "type": "uint256"
        },
        {
          "indexed": false,
          "name": "itemName",
          "type": "string"
        },
        {
          "indexed": false,
          "name": "serialNumber",
          "type": "string"
        },
        {
          "indexed": false,
          "name": "description",
          "type": "string"
        }
      ],
      "name": "ItemAdded",
      "type": "event",
      "signature": "0x602cabd43cb4105e6bf2f9dcdbb5d319fe03f64a5d6f7806385077ee12babc76"
    },
    {
      "anonymous": false,
      "inputs": [
        {
          "indexed": true,
          "name": "id",
          "type": "uint256"
        },
        {
          "indexed": false,
          "name": "itemName",
          "type": "string"
        },
        {
          "indexed": false,
          "name": "serialNumber",
          "type": "string"
        },
        {
          "indexed": false,
          "name": "description",
          "type": "string"
        }
      ],
      "name": "LogItemDetails",
      "type": "event",
      "signature": "0x2a5a8948263a2e57e05dcb2199f9fa98f83e7e39a8329f095342b9a4339d5144"
    },
    {
      "anonymous": false,
      "inputs": [
        {
          "indexed": false,
          "name": "id",
          "type": "uint256"
        },
        {
          "indexed": false,
          "name": "content",
          "type": "string"
        },
        {
          "indexed": false,
          "name": "completed",
          "type": "bool"
        }
      ],
      "name": "NotesCreated",
      "type": "event",
      "signature": "0x8820596ba0b732bb80e3484e35a90bd7acedb89bd46f1190d93ec7d082da91ff"
    },
    {
      "anonymous": false,
      "inputs": [
        {
          "indexed": false,
          "name": "id",
          "type": "uint256"
        },
        {
          "indexed": false,
          "name": "completed",
          "type": "bool"
        }
      ],
      "name": "NotesCompleted",
      "type": "event",
      "signature": "0x43c09caaf7c6d088c09397f588500b7256300dadde36be868573448fe1f18f32"
    },
    {
      "constant": false,
      "inputs": [
        {
          "name": "_itemName",
          "type": "string"
        },
        {
          "name": "_serialNumber",
          "type": "string"
        },
        {
          "name": "_description",
          "type": "string"
        }
      ],
      "name": "createItem",
      "outputs": [],
      "payable": false,
      "stateMutability": "nonpayable",
      "type": "function",
      "signature": "0x876ab02b"
    },
    {
      "constant": false,
      "inputs": [
        {
          "name": "_id",
          "type": "uint256"
        },
        {
          "name": "_itemName",
          "type": "string"
        },
        {
          "name": "_serialNumber",
          "type": "string"
        },
        {
          "name": "_description",
          "type": "string"
        }
      ],
      "name": "editItem",
      "outputs": [],
      "payable": false,
      "stateMutability": "nonpayable",
      "type": "function",
      "signature": "0x8cf4ceaf"
    },
    {
      "constant": false,
      "inputs": [
        {
          "name": "_id",
          "type": "uint256"
        }
      ],
      "name": "deleteItem",
      "outputs": [],
      "payable": false,
      "stateMutability": "nonpayable",
      "type": "function",
      "signature": "0x654fc833"
    },
    {
      "constant": false,
      "inputs": [
        {
          "name": "_content",
          "type": "string"
        }
      ],
      "name": "createNotes",
      "outputs": [],
      "payable": false,
      "stateMutability": "nonpayable",
      "type": "function",
      "signature": "0xfe193a93"
    },
    {
      "constant": false,
      "inputs": [
        {
          "name": "_id",
          "type": "uint256"
        }
      ],
      "name": "toggleCompleted",
      "outputs": [],
      "payable": false,
      "stateMutability": "nonpayable",
      "type": "function",
      "signature": "0x455f5024"
    }
  ],
  "bytecode": "0x60806040526000805560006001553480156200001a57600080fd5b5060408051808201909152601581527f506c656173652061646420736f6d65206e6f74657300000000000000000000006020820152620000639064010000000062000069810204565b62000238565b600080546001908101808355604080516060810182528281526020808201878152828401879052938652600281529190942084518155915180519293620000b99390850192919091019062000193565b5060408201518160020160006101000a81548160ff0219169083151502179055509050507f8820596ba0b732bb80e3484e35a90bd7acedb89bd46f1190d93ec7d082da91ff600054826000604051808481526020018060200183151515158152602001828103825284818151815260200191508051906020019080838360005b838110156200015357818101518382015260200162000139565b50505050905090810190601f168015620001815780820380516001836020036101000a031916815260200191505b5094505050505060405180910390a150565b828054600181600116156101000203166002900490600052602060002090601f016020900481019282601f10620001d657805160ff191683800117855562000206565b8280016001018555821562000206579182015b8281111562000206578251825591602001919060010190620001e9565b506200021492915062000218565b5090565b6200023591905b808211156200021457600081556001016200021f565b90565b6111d680620002486000396000f3fe6080604052600436106100985763ffffffff7c0100000000000000000000000000000000000000000000000000000000600035041663455f5024811461009d57806361c3a7e6146100c9578063654fc8331461017d57806385445449146101a7578063876ab02b146101ce5780638cf4ceaf1461038f578063bfb231d214610557578063e2c03ace146106cc578063fe193a93146106e1575b600080fd5b3480156100a957600080fd5b506100c7600480360360208110156100c057600080fd5b5035610794565b005b3480156100d557600080fd5b506100f3600480360360208110156100ec57600080fd5b50356108f3565b604051808481526020018060200183151515158152602001828103825284818151815260200191508051906020019080838360005b83811015610140578181015183820152602001610128565b50505050905090810190601f16801561016d5780820380516001836020036101000a031916815260200191505b5094505050505060405180910390f35b34801561018957600080fd5b506100c7600480360360208110156101a057600080fd5b50356109a1565b3480156101b357600080fd5b506101bc6109e1565b60408051918252519081900360200190f35b3480156101da57600080fd5b506100c7600480360360608110156101f157600080fd5b81019060208101813564010000000081111561020c57600080fd5b82018360208201111561021e57600080fd5b8035906020019184600183028401116401000000008311171561024057600080fd5b91908080601f016020809104026020016040519081016040528093929190818152602001838380828437600092019190915250929594936020810193503591505064010000000081111561029357600080fd5b8201836020820111156102a557600080fd5b803590602001918460018302840111640100000000831117156102c757600080fd5b91908080601f016020809104026020016040519081016040528093929190818152602001838380828437600092019190915250929594936020810193503591505064010000000081111561031a57600080fd5b82018360208201111561032c57600080fd5b8035906020019184600183028401116401000000008311171561034e57600080fd5b91908080601f0160208091040260200160405190810160405280939291908181526020018383808284376000920191909152509295506109e7945050505050565b34801561039b57600080fd5b506100c7600480360360808110156103b257600080fd5b813591908101906040810160208201356401000000008111156103d457600080fd5b8201836020820111156103e657600080fd5b8035906020019184600183028401116401000000008311171561040857600080fd5b91908080601f016020809104026020016040519081016040528093929190818152602001838380828437600092019190915250929594936020810193503591505064010000000081111561045b57600080fd5b82018360208201111561046d57600080fd5b8035906020019184600183028401116401000000008311171561048f57600080fd5b91908080601f01602080910402602001604051908101604052809392919081815260200183838082843760009201919091525092959493602081019350359150506401000000008111156104e257600080fd5b8201836020820111156104f457600080fd5b8035906020019184600183028401116401000000008311171561051657600080fd5b91908080601f016020809104026020016040519081016040528093929190818152602001838380828437600092019190915250929550610d56945050505050565b34801561056357600080fd5b506105816004803603602081101561057a57600080fd5b5035610db0565b60405180858152602001806020018060200180602001848103845287818151815260200191508051906020019080838360005b838110156105cc5781810151838201526020016105b4565b50505050905090810190601f1680156105f95780820380516001836020036101000a031916815260200191505b50848103835286518152865160209182019188019080838360005b8381101561062c578181015183820152602001610614565b50505050905090810190601f1680156106595780820380516001836020036101000a031916815260200191505b50848103825285518152855160209182019187019080838360005b8381101561068c578181015183820152602001610674565b50505050905090810190601f1680156106b95780820380516001836020036101000a031916815260200191505b5097505050505050505060405180910390f35b3480156106d857600080fd5b506101bc610f79565b3480156106ed57600080fd5b506100c76004803603602081101561070457600080fd5b81019060208101813564010000000081111561071f57600080fd5b82018360208201111561073157600080fd5b8035906020019184600183028401116401000000008311171561075357600080fd5b91908080601f016020809104026020016040519081016040528093929190818152602001838380828437600092019190915250929550610f7f945050505050565b61079c6110a4565b6000828152600260208181526040928390208351606081018552815481526001808301805487519281161561010002600019011695909504601f81018590048502820185019096528581529094919385840193919290918301828280156108445780601f1061081957610100808354040283529160200191610844565b820191906000526020600020905b81548152906001019060200180831161082757829003601f168201915b505050918352505060029182015460ff1615156020918201526040808401805115905260008681529282529091208251815582820151805193945084939192610895926001850192909101906110c8565b50604091820151600291909101805460ff1916911515919091179055818101518151848152901515602082015281517f43c09caaf7c6d088c09397f588500b7256300dadde36be868573448fe1f18f32929181900390910190a15050565b60026020818152600092835260409283902080546001808301805487519281161561010002600019011695909504601f810185900485028201850190965285815290949193909290919083018282801561098e5780601f106109635761010080835404028352916020019161098e565b820191906000526020600020905b81548152906001019060200180831161097157829003601f168201915b5050506002909301549192505060ff1683565b6000818152600360205260408120818155906109c06001830182611146565b6109ce600283016000611146565b6109dc600383016000611146565b505050565b60005481565b6001805481018082556040805160808101825282815260208082018881528284018890526060830187905260009485526003825292909320815181559151805191949293610a3a938501929101906110c8565b5060408201518051610a569160028401916020909101906110c8565b5060608201518051610a729160038401916020909101906110c8565b509050507f602cabd43cb4105e6bf2f9dcdbb5d319fe03f64a5d6f7806385077ee12babc7660015484848460405180858152602001806020018060200180602001848103845287818151815260200191508051906020019080838360005b83811015610ae8578181015183820152602001610ad0565b50505050905090810190601f168015610b155780820380516001836020036101000a031916815260200191505b50848103835286518152865160209182019188019080838360005b83811015610b48578181015183820152602001610b30565b50505050905090810190601f168015610b755780820380516001836020036101000a031916815260200191505b50848103825285518152855160209182019187019080838360005b83811015610ba8578181015183820152602001610b90565b50505050905090810190601f168015610bd55780820380516001836020036101000a031916815260200191505b5097505050505050505060405180910390a16001547f2a5a8948263a2e57e05dcb2199f9fa98f83e7e39a8329f095342b9a4339d514484848460405180806020018060200180602001848103845287818151815260200191508051906020019080838360005b83811015610c53578181015183820152602001610c3b565b50505050905090810190601f168015610c805780820380516001836020036101000a031916815260200191505b50848103835286518152865160209182019188019080838360005b83811015610cb3578181015183820152602001610c9b565b50505050905090810190601f168015610ce05780820380516001836020036101000a031916815260200191505b50848103825285518152855160209182019187019080838360005b83811015610d13578181015183820152602001610cfb565b50505050905090810190601f168015610d405780820380516001836020036101000a031916815260200191505b50965050505050505060405180910390a2505050565b600084815260036020908152604090912084519091610d7c9160018401918701906110c8565b508251610d9290600283019060208601906110c8565b508151610da890600383019060208501906110c8565b505050505050565b6003602090815260009182526040918290208054600180830180548651600293821615610100026000190190911692909204601f810186900486028301860190965285825291949293909290830182828015610e4d5780601f10610e2257610100808354040283529160200191610e4d565b820191906000526020600020905b815481529060010190602001808311610e3057829003601f168201915b50505060028085018054604080516020601f6000196101006001871615020190941695909504928301859004850281018501909152818152959695945090925090830182828015610edf5780601f10610eb457610100808354040283529160200191610edf565b820191906000526020600020905b815481529060010190602001808311610ec257829003601f168201915b5050505060038301805460408051602060026001851615610100026000190190941693909304601f8101849004840282018401909252818152949594935090830182828015610f6f5780601f10610f4457610100808354040283529160200191610f6f565b820191906000526020600020905b815481529060010190602001808311610f5257829003601f168201915b5050505050905084565b60015481565b600080546001908101808355604080516060810182528281526020808201878152828401879052938652600281529190942084518155915180519293610fcd939085019291909101906110c8565b5060408201518160020160006101000a81548160ff0219169083151502179055509050507f8820596ba0b732bb80e3484e35a90bd7acedb89bd46f1190d93ec7d082da91ff600054826000604051808481526020018060200183151515158152602001828103825284818151815260200191508051906020019080838360005b8381101561106557818101518382015260200161104d565b50505050905090810190601f1680156110925780820380516001836020036101000a031916815260200191505b5094505050505060405180910390a150565b60606040519081016040528060008152602001606081526020016000151581525090565b828054600181600116156101000203166002900490600052602060002090601f016020900481019282601f1061110957805160ff1916838001178555611136565b82800160010185558215611136579182015b8281111561113657825182559160200191906001019061111b565b5061114292915061118d565b5090565b50805460018160011615610100020316600290046000825580601f1061116c575061118a565b601f01602090049060005260206000209081019061118a919061118d565b50565b6111a791905b808211156111425760008155600101611193565b9056fea165627a7a7230582059541d6964055b6d401d4739347512fa23902d532a2f98e417f58538955eaa2a0029",
  "source": "pragma solidity ^0.5.0;\n\ncontract NotesList {\n uint public notesCount = 0;\n uint public itemsCount = 0; // Menambah counter untuk barang\n    \n struct Notes {\n    uint id;\n    string content;\n    bool completed;\n }\n\n\n   struct Item {\n      uint id;\n      string itemName;\n      string serialNumber;\n      string description;\n   }\n\n mapping(uint => Notes) public notes;\n mapping(uint => Item) public items; // Mapping untuk menyimpan data barang\n\n    // Event untuk informasi item yang ditambahkan\n    event ItemAdded(\n        uint id,\n        string itemName,\n        string serialNumber,\n        string description\n    );\n\n        event LogItemDetails(\n        uint indexed id,\n        string itemName,\n        string serialNumber,\n        string description\n    );\n\n    // Fungsi untuk menambahkan item baru\n    function createItem(string memory _itemName, string memory _serialNumber, string memory _description) public {\n        itemsCount++;\n        items[itemsCount] = Item(itemsCount, _itemName, _serialNumber, _description);\n        emit ItemAdded(itemsCount, _itemName, _serialNumber, _description);\n\n          // Tambahkan log untuk memeriksa nilai-nilai yang diterima dari antarmuka pengguna\n          emit LogItemDetails(itemsCount, _itemName, _serialNumber, _description);\n    }\n\n    // Fungsi untuk mengedit informasi item\n    function editItem(uint _id, string memory _itemName, string memory _serialNumber, string memory _description) public {\n        Item storage currentItem = items[_id];\n        currentItem.itemName = _itemName;\n        currentItem.serialNumber = _serialNumber;\n        currentItem.description = _description;\n    }\n\n    // Fungsi untuk menghapus item\n    function deleteItem(uint _id) public {\n        delete items[_id];\n    }\n\n event NotesCreated(\n   uint id,\n   string content,\n   bool completed\n );\n\n  event NotesCompleted(\n   uint id,\n   bool completed\n  );\n\nconstructor()public {\n    createNotes(\"Please add some notes\");\n}\n\n function createNotes(string memory _content) public {\n    notesCount++;\n    notes[notesCount] = Notes(notesCount, _content, false);\n    emit NotesCreated(notesCount, _content, false);\n }\n\n function toggleCompleted(uint _id) public {\n    Notes memory _notes = notes[_id];\n    _notes.completed = !_notes.completed;\n    notes[_id] = _notes;\n    emit NotesCompleted(_id, _notes.completed);\n }\n\n}\n",
  "sourcePath": "/Users/erikuncoro/Documents/Project-eth/eth-notes/contracts/NotesList.sol",
  "compiler": {
    "name": "solc",
    "version": "0.5.0+commit.1d4f565a.Emscripten.clang"
  },
  "schemaVersion": "3.0.1",
  "updatedAt": "2023-11-30T21:09:31.039Z",
  "devdoc": {
    "methods": {}
  },
  "userdoc": {
    "methods": {}
  }
}