{
  "contractName": "NotesList",
  "abi": [
    {
      "constant": true,
      "inputs": [],
      "name": "notesCount",
      "outputs": [
        {
          "name": "",
          "type": "uint256"
        }
      ],
      "payable": false,
      "stateMutability": "view",
      "type": "function",
      "signature": "0x85445449"
    }
  ],
  "bytecode": "0x608060405260008055348015601357600080fd5b506099806100226000396000f3fe608060405260043610603e5763ffffffff7c01000000000000000000000000000000000000000000000000000000006000350416638544544981146043575b600080fd5b348015604e57600080fd5b5060556067565b60408051918252519081900360200190f35b6000548156fea165627a7a72305820e9ec2590a46fb0a13156a8fb6d54c2f49bec518485884aef13c6ad979881ee360029",
  "source": "pragma solidity ^0.5.0;\n\ncontract NotesList {\n uint public notesCount = 0;\n    \n \n\n}\n",
  "sourcePath": "/Users/erikuncoro/Documents/Project-eth/eth-notes/contracts/NotesList.sol",
  "compiler": {
    "name": "solc",
    "version": "0.5.0+commit.1d4f565a.Emscripten.clang"
  },
  "schemaVersion": "3.0.1",
  "updatedAt": "2023-11-28T17:28:00.153Z",
  "devdoc": {
    "methods": {}
  },
  "userdoc": {
    "methods": {}
  }
}