{
  "contractName": "NotesList",
  "abi": [
    {
      "constant": true,
      "inputs": [
        {
          "name": "",
          "type": "address"
        },
        {
          "name": "",
          "type": "uint256"
        }
      ],
      "name": "userItems",
      "outputs": [
        {
          "name": "id",
          "type": "uint256"
        },
        {
          "name": "itemName",
          "type": "string"
        },
        {
          "name": "serialNumber",
          "type": "string"
        },
        {
          "name": "description",
          "type": "string"
        },
        {
          "name": "owner",
          "type": "address"
        }
      ],
      "payable": false,
      "stateMutability": "view",
      "type": "function",
      "signature": "0x5c3bd141"
    },
    {
      "constant": true,
      "inputs": [
        {
          "name": "",
          "type": "uint256"
        }
      ],
      "name": "notes",
      "outputs": [
        {
          "name": "id",
          "type": "uint256"
        },
        {
          "name": "content",
          "type": "string"
        },
        {
          "name": "completed",
          "type": "bool"
        }
      ],
      "payable": false,
      "stateMutability": "view",
      "type": "function",
      "signature": "0x61c3a7e6"
    },
    {
      "constant": true,
      "inputs": [],
      "name": "notesCount",
      "outputs": [
        {
          "name": "",
          "type": "uint256"
        }
      ],
      "payable": false,
      "stateMutability": "view",
      "type": "function",
      "signature": "0x85445449"
    },
    {
      "constant": true,
      "inputs": [
        {
          "name": "",
          "type": "uint256"
        }
      ],
      "name": "items",
      "outputs": [
        {
          "name": "id",
          "type": "uint256"
        },
        {
          "name": "itemName",
          "type": "string"
        },
        {
          "name": "serialNumber",
          "type": "string"
        },
        {
          "name": "description",
          "type": "string"
        },
        {
          "name": "owner",
          "type": "address"
        }
      ],
      "payable": false,
      "stateMutability": "view",
      "type": "function",
      "signature": "0xbfb231d2"
    },
    {
      "constant": true,
      "inputs": [],
      "name": "itemsCount",
      "outputs": [
        {
          "name": "",
          "type": "uint256"
        }
      ],
      "payable": false,
      "stateMutability": "view",
      "type": "function",
      "signature": "0xe2c03ace"
    },
    {
      "inputs": [],
      "payable": false,
      "stateMutability": "nonpayable",
      "type": "constructor",
      "signature": "constructor"
    },
    {
      "anonymous": false,
      "inputs": [
        {
          "indexed": false,
          "name": "id",
          "type": "uint256"
        },
        {
          "indexed": false,
          "name": "itemName",
          "type": "string"
        },
        {
          "indexed": false,
          "name": "serialNumber",
          "type": "string"
        },
        {
          "indexed": false,
          "name": "description",
          "type": "string"
        }
      ],
      "name": "ItemAdded",
      "type": "event",
      "signature": "0x602cabd43cb4105e6bf2f9dcdbb5d319fe03f64a5d6f7806385077ee12babc76"
    },
    {
      "anonymous": false,
      "inputs": [
        {
          "indexed": true,
          "name": "id",
          "type": "uint256"
        },
        {
          "indexed": false,
          "name": "itemName",
          "type": "string"
        },
        {
          "indexed": false,
          "name": "serialNumber",
          "type": "string"
        },
        {
          "indexed": false,
          "name": "description",
          "type": "string"
        }
      ],
      "name": "LogItemDetails",
      "type": "event",
      "signature": "0x2a5a8948263a2e57e05dcb2199f9fa98f83e7e39a8329f095342b9a4339d5144"
    },
    {
      "anonymous": false,
      "inputs": [
        {
          "indexed": false,
          "name": "id",
          "type": "uint256"
        },
        {
          "indexed": false,
          "name": "content",
          "type": "string"
        },
        {
          "indexed": false,
          "name": "completed",
          "type": "bool"
        }
      ],
      "name": "NotesCreated",
      "type": "event",
      "signature": "0x8820596ba0b732bb80e3484e35a90bd7acedb89bd46f1190d93ec7d082da91ff"
    },
    {
      "anonymous": false,
      "inputs": [
        {
          "indexed": false,
          "name": "id",
          "type": "uint256"
        },
        {
          "indexed": false,
          "name": "completed",
          "type": "bool"
        }
      ],
      "name": "NotesCompleted",
      "type": "event",
      "signature": "0x43c09caaf7c6d088c09397f588500b7256300dadde36be868573448fe1f18f32"
    },
    {
      "constant": false,
      "inputs": [
        {
          "name": "_content",
          "type": "string"
        }
      ],
      "name": "createNotes",
      "outputs": [],
      "payable": false,
      "stateMutability": "nonpayable",
      "type": "function",
      "signature": "0xfe193a93"
    },
    {
      "constant": false,
      "inputs": [
        {
          "name": "_id",
          "type": "uint256"
        }
      ],
      "name": "toggleCompleted",
      "outputs": [],
      "payable": false,
      "stateMutability": "nonpayable",
      "type": "function",
      "signature": "0x455f5024"
    },
    {
      "constant": false,
      "inputs": [
        {
          "name": "_itemName",
          "type": "string"
        },
        {
          "name": "_serialNumber",
          "type": "string"
        },
        {
          "name": "_description",
          "type": "string"
        }
      ],
      "name": "createItem",
      "outputs": [],
      "payable": false,
      "stateMutability": "nonpayable",
      "type": "function",
      "signature": "0x876ab02b"
    },
    {
      "constant": false,
      "inputs": [
        {
          "name": "_id",
          "type": "uint256"
        },
        {
          "name": "_itemName",
          "type": "string"
        },
        {
          "name": "_serialNumber",
          "type": "string"
        },
        {
          "name": "_description",
          "type": "string"
        }
      ],
      "name": "editItem",
      "outputs": [],
      "payable": false,
      "stateMutability": "nonpayable",
      "type": "function",
      "signature": "0x8cf4ceaf"
    },
    {
      "constant": false,
      "inputs": [
        {
          "name": "_id",
          "type": "uint256"
        }
      ],
      "name": "deleteItem",
      "outputs": [],
      "payable": false,
      "stateMutability": "nonpayable",
      "type": "function",
      "signature": "0x654fc833"
    },
    {
      "constant": true,
      "inputs": [],
      "name": "getUserItems",
      "outputs": [
        {
          "components": [
            {
              "name": "id",
              "type": "uint256"
            },
            {
              "name": "itemName",
              "type": "string"
            },
            {
              "name": "serialNumber",
              "type": "string"
            },
            {
              "name": "description",
              "type": "string"
            },
            {
              "name": "owner",
              "type": "address"
            }
          ],
          "name": "",
          "type": "tuple[]"
        }
      ],
      "payable": false,
      "stateMutability": "view",
      "type": "function",
      "signature": "0x6502096a"
    }
  ],
  "bytecode": "0x60806040526000805560006001553480156200001a57600080fd5b5060408051808201909152601581527f506c656173652061646420736f6d65206e6f74657300000000000000000000006020820152620000639064010000000062000069810204565b62000297565b600080546001908101808355604080516060810182528281526020808201878152828401879052938652600281529190942084518155915180519293620000b99390850192919091019062000118565b50604091820151600291909101805460ff19169115159190911790556000805491517f8820596ba0b732bb80e3484e35a90bd7acedb89bd46f1190d93ec7d082da91ff926200010d92909185919062000214565b60405180910390a150565b828054600181600116156101000203166002900490600052602060002090601f016020900481019282601f106200015b57805160ff19168380011785556200018b565b828001600101855582156200018b579182015b828111156200018b5782518255916020019190600101906200016e565b50620001999291506200019d565b5090565b620001ba91905b80821115620001995760008155600101620001a4565b90565b620001c88162000255565b82525050565b6000620001db8262000251565b808452620001f18160208601602086016200025a565b620001fc816200028d565b9093016020019392505050565b620001c881620001ba565b6060810162000224828662000209565b8181036020830152620002388185620001ce565b9050620002496040830184620001bd565b949350505050565b5190565b151590565b60005b83811015620002775781810151838201526020016200025d565b8381111562000287576000848401525b50505050565b601f01601f191690565b61148480620002a76000396000f3fe6080604052600436106100ae5763ffffffff7c0100000000000000000000000000000000000000000000000000000000600035041663455f502481146100b35780635c3bd141146100d557806361c3a7e61461010f5780636502096a1461013e578063654fc833146101605780638544544914610180578063876ab02b146101a25780638cf4ceaf146101c2578063bfb231d2146101e2578063e2c03ace14610202578063fe193a9314610217575b600080fd5b3480156100bf57600080fd5b506100d36100ce366004610f68565b610237565b005b3480156100e157600080fd5b506100f56100f0366004610e5d565b61029d565b604051610106959493929190611338565b60405180910390f35b34801561011b57600080fd5b5061012f61012a366004610f68565b61047c565b604051610106939291906112b7565b34801561014a57600080fd5b5061015361052a565b6040516101069190611215565b34801561016c57600080fd5b506100d361017b366004610f68565b6107c8565b34801561018c57600080fd5b506101956108e8565b604051610106919061128e565b3480156101ae57600080fd5b506100d36101bd366004610ed4565b6108ee565b3480156101ce57600080fd5b506100d36101dd366004610f86565b610b02565b3480156101ee57600080fd5b506100f56101fd366004610f68565b610baf565b34801561020e57600080fd5b50610195610c21565b34801561022357600080fd5b506100d3610232366004610e97565b610c27565b600081815260026020819052604091829020908101805460ff19811660ff918216151791829055925191927f43c09caaf7c6d088c09397f588500b7256300dadde36be868573448fe1f18f3292610291928692169061129c565b60405180910390a15050565b60046020908152600092835260408084208252918352918190208054600180830180548551600293821615610100026000190190911692909204601f81018790048702830187019095528482529194929390928301828280156103415780601f1061031657610100808354040283529160200191610341565b820191906000526020600020905b81548152906001019060200180831161032457829003601f168201915b50505060028085018054604080516020601f60001961010060018716150201909416959095049283018590048502810185019091528181529596959450909250908301828280156103d35780601f106103a8576101008083540402835291602001916103d3565b820191906000526020600020905b8154815290600101906020018083116103b657829003601f168201915b5050505060038301805460408051602060026001851615610100026000190190941693909304601f81018490048402820184019092528181529495949350908301828280156104635780601f1061043857610100808354040283529160200191610463565b820191906000526020600020905b81548152906001019060200180831161044657829003601f168201915b50505060049093015491925050600160a060020a031685565b60026020818152600092835260409283902080546001808301805487519281161561010002600019011695909504601f81018590048502820185019096528581529094919390929091908301828280156105175780601f106104ec57610100808354040283529160200191610517565b820191906000526020600020905b8154815290600101906020018083116104fa57829003601f168201915b5050506002909301549192505060ff1683565b60606000600154905060608160405190808252806020026020018201604052801561056f57816020015b61055c610cd2565b8152602001906001900390816105545790505b509050600060015b8381116107be57336000908152600460209081526040808320848452909152902054156107b657336000908152600460209081526040808320848452825291829020825160a08101845281548152600180830180548651600293821615610100026000190190911692909204601f81018690048602830186019096528582529194929385810193919291908301828280156106535780601f1061062857610100808354040283529160200191610653565b820191906000526020600020905b81548152906001019060200180831161063657829003601f168201915b5050509183525050600282810180546040805160206001841615610100026000190190931694909404601f810183900483028501830190915280845293810193908301828280156106e55780601f106106ba576101008083540402835291602001916106e5565b820191906000526020600020905b8154815290600101906020018083116106c857829003601f168201915b505050918352505060038201805460408051602060026001851615610100026000190190941693909304601f81018490048402820184019092528181529382019392918301828280156107795780601f1061074e57610100808354040283529160200191610779565b820191906000526020600020905b81548152906001019060200180831161075c57829003601f168201915b505050918352505060049190910154600160a060020a031660209091015283518490849081106107a557fe5b602090810290910101526001909101905b600101610577565b5090925050505b90565b600081815260036020526040902060040154600160a060020a03163314610824576040517f08c379a000000000000000000000000000000000000000000000000000000000815260040161081b90611268565b60405180910390fd5b6000818152600360205260408120818155906108436001830182610d0b565b610851600283016000610d0b565b61085f600383016000610d0b565b506004908101805473ffffffffffffffffffffffffffffffffffffffff1916905533600090815260209182526040808220848352909252908120818155906108aa6001830182610d0b565b6108b8600283016000610d0b565b6108c6600383016000610d0b565b50600401805473ffffffffffffffffffffffffffffffffffffffff1916905550565b60005481565b6001805481018082556040805160a0810182528281526020808201888152828401889052606083018790523360808401526000948552600382529290932081518155915180519194929361094793850192910190610d52565b5060408201518051610963916002840191602090910190610d52565b506060820151805161097f916003840191602090910190610d52565b506080918201516004918201805473ffffffffffffffffffffffffffffffffffffffff1916600160a060020a039092169190911790556040805160a0810182526001805480835260208084018a81528486018a9052606085018990523397850188905260009788529581528487209187529081529290942081518155925180519194610a119390850192910190610d52565b5060408201518051610a2d916002840191602090910190610d52565b5060608201518051610a49916003840191602090910190610d52565b50608091909101516004909101805473ffffffffffffffffffffffffffffffffffffffff1916600160a060020a039092169190911790556001546040517f602cabd43cb4105e6bf2f9dcdbb5d319fe03f64a5d6f7806385077ee12babc7691610ab7918690869086906112e6565b60405180910390a16001547f2a5a8948263a2e57e05dcb2199f9fa98f83e7e39a8329f095342b9a4339d5144848484604051610af593929190611226565b60405180910390a2505050565b600084815260036020526040902060040154600160a060020a03163314610b55576040517f08c379a000000000000000000000000000000000000000000000000000000000815260040161081b9061127e565b600084815260036020908152604090912084519091610b7b916001840191870190610d52565b508251610b919060028301906020860190610d52565b508151610ba79060038301906020850190610d52565b505050505050565b6003602090815260009182526040918290208054600180830180548651600293821615610100026000190190911692909204601f8101869004860283018601909652858252919492939092908301828280156103415780601f1061031657610100808354040283529160200191610341565b60015481565b600080546001908101808355604080516060810182528281526020808201878152828401879052938652600281529190942084518155915180519293610c7593908501929190910190610d52565b50604091820151600291909101805460ff19169115159190911790556000805491517f8820596ba0b732bb80e3484e35a90bd7acedb89bd46f1190d93ec7d082da91ff92610cc79290918591906112b7565b60405180910390a150565b60a060405190810160405280600081526020016060815260200160608152602001606081526020016000600160a060020a031681525090565b50805460018160011615610100020316600290046000825580601f10610d315750610d4f565b601f016020900490600052602060002090810190610d4f9190610dd0565b50565b828054600181600116156101000203166002900490600052602060002090601f016020900481019282601f10610d9357805160ff1916838001178555610dc0565b82800160010185558215610dc0579182015b82811115610dc0578251825591602001919060010190610da5565b50610dcc929150610dd0565b5090565b6107c591905b80821115610dcc5760008155600101610dd6565b6000610df682356113e8565b9392505050565b6000601f82018313610e0e57600080fd5b8135610e21610e1c826113b6565b61138f565b91508082526020830160208301858383011115610e3d57600080fd5b610e48838284611404565b50505092915050565b6000610df682356107c5565b60008060408385031215610e7057600080fd5b6000610e7c8585610dea565b9250506020610e8d85828601610e51565b9150509250929050565b600060208284031215610ea957600080fd5b813567ffffffffffffffff811115610ec057600080fd5b610ecc84828501610dfd565b949350505050565b600080600060608486031215610ee957600080fd5b833567ffffffffffffffff811115610f0057600080fd5b610f0c86828701610dfd565b935050602084013567ffffffffffffffff811115610f2957600080fd5b610f3586828701610dfd565b925050604084013567ffffffffffffffff811115610f5257600080fd5b610f5e86828701610dfd565b9150509250925092565b600060208284031215610f7a57600080fd5b6000610ecc8484610e51565b60008060008060808587031215610f9c57600080fd5b6000610fa88787610e51565b945050602085013567ffffffffffffffff811115610fc557600080fd5b610fd187828801610dfd565b935050604085013567ffffffffffffffff811115610fee57600080fd5b610ffa87828801610dfd565b925050606085013567ffffffffffffffff81111561101757600080fd5b61102387828801610dfd565b91505092959194509250565b611038816113e8565b82525050565b6000611049826113e4565b80845260208401935083602082028501611062856113de565b60005b8481101561109957838303885261107d83835161118f565b9250611088826113de565b602098909801979150600101611065565b50909695505050505050565b611038816113f3565b60006110b9826113e4565b8084526110cd816020860160208601611410565b6110d681611440565b9093016020019392505050565b603181527f416e646120746964616b206d656d696c696b6920697a696e20756e74756b206d60208201527f656e676861707573206974656d20696e69000000000000000000000000000000604082015260600190565b603081527f416e646120746964616b206d656d696c696b6920697a696e20756e74756b206d60208201527f656e6765646974206974656d20696e6900000000000000000000000000000000604082015260600190565b805160009060a08401906111a3858261120c565b50602083015184820360208601526111bb82826110ae565b915050604083015184820360408601526111d582826110ae565b915050606083015184820360608601526111ef82826110ae565b9150506080830151611204608086018261102f565b509392505050565b611038816107c5565b60208082528101610df6818461103e565b6060808252810161123781866110ae565b9050818103602083015261124b81856110ae565b9050818103604083015261125f81846110ae565b95945050505050565b60208082528101611278816110e3565b92915050565b6020808252810161127881611139565b60208101611278828461120c565b604081016112aa828561120c565b610df660208301846110a5565b606081016112c5828661120c565b81810360208301526112d781856110ae565b9050610ecc60408301846110a5565b608081016112f4828761120c565b818103602083015261130681866110ae565b9050818103604083015261131a81856110ae565b9050818103606083015261132e81846110ae565b9695505050505050565b60a08101611346828861120c565b818103602083015261135881876110ae565b9050818103604083015261136c81866110ae565b9050818103606083015261138081856110ae565b905061132e608083018461102f565b60405181810167ffffffffffffffff811182821017156113ae57600080fd5b604052919050565b600067ffffffffffffffff8211156113cd57600080fd5b506020601f91909101601f19160190565b60200190565b5190565b6000611278826113f8565b151590565b600160a060020a031690565b82818337506000910152565b60005b8381101561142b578181015183820152602001611413565b8381111561143a576000848401525b50505050565b601f01601f19169056fea265627a7a72305820cff4b54fda47efbc7134b8eb88382578e6e12bf1e04213b90f8cf486e5d43e3d6c6578706572696d656e74616cf50037",
  "source": "pragma solidity ^0.5.0;\npragma experimental ABIEncoderV2;\n\ncontract NotesList {\n    uint public notesCount = 0;\n    uint public itemsCount = 0;\n\n    struct Notes {\n        uint id;\n        string content;\n        bool completed;\n    }\n\n    struct Item {\n        uint id;\n        string itemName;\n        string serialNumber;\n        string description;\n        address owner; // Menambah properti untuk menyimpan alamat pemilik\n    }\n\n    mapping(uint => Notes) public notes;\n    mapping(uint => Item) public items;\n    mapping(address => mapping(uint => Item)) public userItems; // Mapping untuk menyimpan item-item milik pengguna\n\n    event ItemAdded(\n        uint id,\n        string itemName,\n        string serialNumber,\n        string description\n    );\n\n    event LogItemDetails(\n        uint indexed id,\n        string itemName,\n        string serialNumber,\n        string description\n    );\n\n    event NotesCreated(\n        uint id,\n        string content,\n        bool completed\n    );\n\n    event NotesCompleted(\n        uint id,\n        bool completed\n    );\n\n    constructor() public {\n        createNotes(\"Please add some notes\");\n    }\n\n    function createNotes(string memory _content) public {\n        notesCount++;\n        notes[notesCount] = Notes(notesCount, _content, false);\n        emit NotesCreated(notesCount, _content, false);\n    }\n\n    function toggleCompleted(uint _id) public {\n        Notes storage _notes = notes[_id];\n        _notes.completed = !_notes.completed;\n        emit NotesCompleted(_id, _notes.completed);\n    }\n\n    function createItem(string memory _itemName, string memory _serialNumber, string memory _description) public {\n        itemsCount++;\n        items[itemsCount] = Item(itemsCount, _itemName, _serialNumber, _description, msg.sender);\n        userItems[msg.sender][itemsCount] = Item(itemsCount, _itemName, _serialNumber, _description, msg.sender);\n        emit ItemAdded(itemsCount, _itemName, _serialNumber, _description);\n        emit LogItemDetails(itemsCount, _itemName, _serialNumber, _description);\n    }\n\n    function editItem(uint _id, string memory _itemName, string memory _serialNumber, string memory _description) public {\n        require(msg.sender == items[_id].owner, \"Anda tidak memiliki izin untuk mengedit item ini\");\n        Item storage currentItem = items[_id];\n        currentItem.itemName = _itemName;\n        currentItem.serialNumber = _serialNumber;\n        currentItem.description = _description;\n    }\n\n    function deleteItem(uint _id) public {\n        require(msg.sender == items[_id].owner, \"Anda tidak memiliki izin untuk menghapus item ini\");\n        delete items[_id];\n        delete userItems[msg.sender][_id];\n    }\n\n    function getUserItems() public view returns (Item[] memory) {\n        uint itemCount = itemsCount;\n        Item[] memory result = new Item[](itemCount);\n        uint index = 0;\n        for (uint i = 1; i <= itemCount; i++) {\n            if (userItems[msg.sender][i].id != 0) {\n                result[index] = userItems[msg.sender][i];\n                index++;\n            }\n        }\n        return result;\n    }\n}\n",
  "sourcePath": "/Users/erikuncoro/Documents/Project-eth/eth-notes/contracts/NotesList.sol",
  "compiler": {
    "name": "solc",
    "version": "0.5.0+commit.1d4f565a.Emscripten.clang"
  },
  "schemaVersion": "3.0.1",
  "updatedAt": "2023-12-16T13:19:19.958Z",
  "devdoc": {
    "methods": {}
  },
  "userdoc": {
    "methods": {}
  }
}